{
  "_format": "hh-sol-artifact-1",
  "contractName": "DebateArena",
  "sourceName": "contracts/DebateArena.sol",
  "abi": [
    {
      "anonymous": false,
      "inputs": [
        {
          "indexed": true,
          "internalType": "uint256",
          "name": "arenaId",
          "type": "uint256"
        },
        {
          "indexed": false,
          "internalType": "bytes32",
          "name": "topicHash",
          "type": "bytes32"
        },
        {
          "indexed": false,
          "internalType": "uint256",
          "name": "stakeAmount",
          "type": "uint256"
        },
        {
          "indexed": false,
          "internalType": "uint256",
          "name": "endTime",
          "type": "uint256"
        },
        {
          "indexed": false,
          "internalType": "address",
          "name": "creator",
          "type": "address"
        }
      ],
      "name": "ArenaCreated",
      "type": "event"
    },
    {
      "anonymous": false,
      "inputs": [
        {
          "indexed": true,
          "internalType": "uint256",
          "name": "arenaId",
          "type": "uint256"
        },
        {
          "indexed": false,
          "internalType": "enum DebateArena.Side",
          "name": "winningSide",
          "type": "uint8"
        },
        {
          "indexed": false,
          "internalType": "address",
          "name": "winner",
          "type": "address"
        },
        {
          "indexed": false,
          "internalType": "uint256",
          "name": "payout",
          "type": "uint256"
        }
      ],
      "name": "ArenaFinalized",
      "type": "event"
    },
    {
      "anonymous": false,
      "inputs": [
        {
          "indexed": true,
          "internalType": "uint256",
          "name": "arenaId",
          "type": "uint256"
        },
        {
          "indexed": false,
          "internalType": "address",
          "name": "debater",
          "type": "address"
        },
        {
          "indexed": false,
          "internalType": "enum DebateArena.Side",
          "name": "side",
          "type": "uint8"
        }
      ],
      "name": "DebaterJoined",
      "type": "event"
    },
    {
      "anonymous": false,
      "inputs": [
        {
          "indexed": true,
          "internalType": "uint256",
          "name": "arenaId",
          "type": "uint256"
        },
        {
          "indexed": false,
          "internalType": "address",
          "name": "voter",
          "type": "address"
        },
        {
          "indexed": false,
          "internalType": "enum DebateArena.Side",
          "name": "side",
          "type": "uint8"
        },
        {
          "indexed": false,
          "internalType": "uint256",
          "name": "stake",
          "type": "uint256"
        }
      ],
      "name": "VoteCast",
      "type": "event"
    },
    {
      "inputs": [],
      "name": "MIN_VOTE_STAKE",
      "outputs": [
        {
          "internalType": "uint256",
          "name": "",
          "type": "uint256"
        }
      ],
      "stateMutability": "view",
      "type": "function"
    },
    {
      "inputs": [],
      "name": "PLATFORM_FEE_BPS",
      "outputs": [
        {
          "internalType": "uint256",
          "name": "",
          "type": "uint256"
        }
      ],
      "stateMutability": "view",
      "type": "function"
    },
    {
      "inputs": [],
      "name": "arenaCount",
      "outputs": [
        {
          "internalType": "uint256",
          "name": "",
          "type": "uint256"
        }
      ],
      "stateMutability": "view",
      "type": "function"
    },
    {
      "inputs": [
        {
          "internalType": "uint256",
          "name": "",
          "type": "uint256"
        }
      ],
      "name": "arenas",
      "outputs": [
        {
          "internalType": "bytes32",
          "name": "topicHash",
          "type": "bytes32"
        },
        {
          "internalType": "uint256",
          "name": "stakeAmount",
          "type": "uint256"
        },
        {
          "internalType": "uint256",
          "name": "endTime",
          "type": "uint256"
        },
        {
          "internalType": "address",
          "name": "creator",
          "type": "address"
        },
        {
          "internalType": "address",
          "name": "proDebater",
          "type": "address"
        },
        {
          "internalType": "address",
          "name": "conDebater",
          "type": "address"
        },
        {
          "internalType": "uint256",
          "name": "proVotes",
          "type": "uint256"
        },
        {
          "internalType": "uint256",
          "name": "conVotes",
          "type": "uint256"
        },
        {
          "internalType": "uint256",
          "name": "totalPot",
          "type": "uint256"
        },
        {
          "internalType": "enum DebateArena.Status",
          "name": "status",
          "type": "uint8"
        },
        {
          "internalType": "address",
          "name": "winner",
          "type": "address"
        }
      ],
      "stateMutability": "view",
      "type": "function"
    },
    {
      "inputs": [
        {
          "internalType": "bytes32",
          "name": "topicHash",
          "type": "bytes32"
        },
        {
          "internalType": "uint256",
          "name": "endTime",
          "type": "uint256"
        }
      ],
      "name": "createArena",
      "outputs": [],
      "stateMutability": "payable",
      "type": "function"
    },
    {
      "inputs": [
        {
          "internalType": "uint256",
          "name": "",
          "type": "uint256"
        },
        {
          "internalType": "address",
          "name": "",
          "type": "address"
        }
      ],
      "name": "debaterSides",
      "outputs": [
        {
          "internalType": "enum DebateArena.Side",
          "name": "",
          "type": "uint8"
        }
      ],
      "stateMutability": "view",
      "type": "function"
    },
    {
      "inputs": [
        {
          "internalType": "uint256",
          "name": "arenaId",
          "type": "uint256"
        }
      ],
      "name": "finalize",
      "outputs": [],
      "stateMutability": "nonpayable",
      "type": "function"
    },
    {
      "inputs": [
        {
          "internalType": "uint256",
          "name": "arenaId",
          "type": "uint256"
        }
      ],
      "name": "getArena",
      "outputs": [
        {
          "internalType": "bytes32",
          "name": "topicHash",
          "type": "bytes32"
        },
        {
          "internalType": "uint256",
          "name": "stakeAmount",
          "type": "uint256"
        },
        {
          "internalType": "uint256",
          "name": "endTime",
          "type": "uint256"
        },
        {
          "internalType": "address",
          "name": "proDebater",
          "type": "address"
        },
        {
          "internalType": "address",
          "name": "conDebater",
          "type": "address"
        },
        {
          "internalType": "uint256",
          "name": "proVotes",
          "type": "uint256"
        },
        {
          "internalType": "uint256",
          "name": "conVotes",
          "type": "uint256"
        },
        {
          "internalType": "uint256",
          "name": "totalPot",
          "type": "uint256"
        },
        {
          "internalType": "enum DebateArena.Status",
          "name": "status",
          "type": "uint8"
        },
        {
          "internalType": "address",
          "name": "winner",
          "type": "address"
        }
      ],
      "stateMutability": "view",
      "type": "function"
    },
    {
      "inputs": [
        {
          "internalType": "uint256",
          "name": "",
          "type": "uint256"
        },
        {
          "internalType": "address",
          "name": "",
          "type": "address"
        }
      ],
      "name": "hasVoted",
      "outputs": [
        {
          "internalType": "bool",
          "name": "",
          "type": "bool"
        }
      ],
      "stateMutability": "view",
      "type": "function"
    },
    {
      "inputs": [
        {
          "internalType": "uint256",
          "name": "arenaId",
          "type": "uint256"
        }
      ],
      "name": "joinArena",
      "outputs": [],
      "stateMutability": "payable",
      "type": "function"
    },
    {
      "inputs": [
        {
          "internalType": "uint256",
          "name": "arenaId",
          "type": "uint256"
        },
        {
          "internalType": "enum DebateArena.Side",
          "name": "side",
          "type": "uint8"
        }
      ],
      "name": "vote",
      "outputs": [],
      "stateMutability": "payable",
      "type": "function"
    },
    {
      "inputs": [
        {
          "internalType": "uint256",
          "name": "",
          "type": "uint256"
        },
        {
          "internalType": "address",
          "name": "",
          "type": "address"
        }
      ],
      "name": "voterStakes",
      "outputs": [
        {
          "internalType": "uint256",
          "name": "",
          "type": "uint256"
        }
      ],
      "stateMutability": "view",
      "type": "function"
    },
    {
      "inputs": [],
      "name": "withdrawFees",
      "outputs": [],
      "stateMutability": "nonpayable",
      "type": "function"
    },
    {
      "stateMutability": "payable",
      "type": "receive"
    }
  ],
  "bytecode": "0x608060405234801561001057600080fd5b50612266806100206000396000f3fe6080604052600436106100c65760003560e01c8063539aa77f1161007f578063943e821611610059578063943e82161461028b57806395beeae8146102a7578063d062d0e3146102d2578063f6b3a00a1461030f576100cd565b8063539aa77f146101ee57806374b069381461021957806384f4319c14610244576100cd565b806305261aea146100d25780631a8425b4146100fb5780631b826be714610141578063438596321461015d578063476343ee1461019a578063500e3441146101b1576100cd565b366100cd57005b600080fd5b3480156100de57600080fd5b506100f960048036038101906100f491906114bd565b61032b565b005b34801561010757600080fd5b50610122600480360381019061011d91906114bd565b61069a565b6040516101389a999897969594939291906115ca565b60405180910390f35b61015b60048036038101906101569190611692565b6107d4565b005b34801561016957600080fd5b50610184600480360381019061017f91906116fe565b610a5b565b6040516101919190611759565b60405180910390f35b3480156101a657600080fd5b506101af610a8a565b005b3480156101bd57600080fd5b506101d860048036038101906101d391906116fe565b610a8c565b6040516101e59190611774565b60405180910390f35b3480156101fa57600080fd5b50610203610ab1565b6040516102109190611774565b60405180910390f35b34801561022557600080fd5b5061022e610ab6565b60405161023b9190611774565b60405180910390f35b34801561025057600080fd5b5061026b600480360381019061026691906114bd565b610abc565b6040516102829b9a9998979695949392919061178f565b60405180910390f35b6102a560048036038101906102a0919061185f565b610ba3565b005b3480156102b357600080fd5b506102bc6110b8565b6040516102c99190611774565b60405180910390f35b3480156102de57600080fd5b506102f960048036038101906102f491906116fe565b6110c3565b60405161030691906118e7565b60405180910390f35b610329600480360381019061032491906114bd565b6110f2565b005b8060008111801561033e57506000548111155b61037d576040517f08c379a00000000000000000000000000000000000000000000000000000000081526004016103749061195f565b60405180910390fd5b6000600160008481526020019081526020016000209050600160028111156103a8576103a7611553565b5b8160090160009054906101000a900460ff1660028111156103cc576103cb611553565b5b1461040c576040517f08c379a0000000000000000000000000000000000000000000000000000000008152600401610403906119cb565b60405180910390fd5b80600201544211610452576040517f08c379a000000000000000000000000000000000000000000000000000000000815260040161044990611a37565b60405180910390fd5b60028160090160006101000a81548160ff0219169083600281111561047a57610479611553565b5b02179055506000808260070154836006015411156104c257600191508260040160009054906101000a900473ffffffffffffffffffffffffffffffffffffffff16905061052f565b82600601548360070154111561050257600291508260050160009054906101000a900473ffffffffffffffffffffffffffffffffffffffff16905061052e565b600191508260040160009054906101000a900473ffffffffffffffffffffffffffffffffffffffff1690505b5b808360090160016101000a81548173ffffffffffffffffffffffffffffffffffffffff021916908373ffffffffffffffffffffffffffffffffffffffff160217905550600061271060fa85600801546105889190611a86565b6105929190611af7565b905060008185600801546105a69190611b28565b905060008373ffffffffffffffffffffffffffffffffffffffff16826040516105ce90611b8d565b60006040518083038185875af1925050503d806000811461060b576040519150601f19603f3d011682016040523d82523d6000602084013e610610565b606091505b5050905080610654576040517f08c379a000000000000000000000000000000000000000000000000000000000815260040161064b90611bee565b60405180910390fd5b877fa1b86c7881ecbbb63433fd8ca5bfbfe22ae4eb3eecfb5856f1e74cca08b9615186868560405161068893929190611c0e565b60405180910390a25050505050505050565b6000806000806000806000806000808a6000811180156106bc57506000548111155b6106fb576040517f08c379a00000000000000000000000000000000000000000000000000000000081526004016106f29061195f565b60405180910390fd5b6000600160008e815260200190815260200160002090508060000154816001015482600201548360040160009054906101000a900473ffffffffffffffffffffffffffffffffffffffff168460050160009054906101000a900473ffffffffffffffffffffffffffffffffffffffff168560060154866007015487600801548860090160009054906101000a900460ff168960090160019054906101000a900473ffffffffffffffffffffffffffffffffffffffff169b509b509b509b509b509b509b509b509b509b5050509193959799509193959799565b60003411610817576040517f08c379a000000000000000000000000000000000000000000000000000000000815260040161080e90611c91565b60405180910390fd5b428111610859576040517f08c379a000000000000000000000000000000000000000000000000000000000815260040161085090611cfd565b60405180910390fd5b60008081548092919061086b90611d1d565b9190505550600060016000805481526020019081526020016000209050828160000181905550348160010181905550818160020181905550338160030160006101000a81548173ffffffffffffffffffffffffffffffffffffffff021916908373ffffffffffffffffffffffffffffffffffffffff160217905550338160040160006101000a81548173ffffffffffffffffffffffffffffffffffffffff021916908373ffffffffffffffffffffffffffffffffffffffff16021790555034816008018190555060008160090160006101000a81548160ff0219169083600281111561095a57610959611553565b5b02179055506001600260008054815260200190815260200160002060003373ffffffffffffffffffffffffffffffffffffffff1673ffffffffffffffffffffffffffffffffffffffff16815260200190815260200160002060006101000a81548160ff021916908360028111156109d4576109d3611553565b5b02179055506000547fc4c0404ed9fbd153243fc5300ee2d88d8454941b3cc1279825c6ad9c1f07fe4384348533604051610a119493929190611d65565b60405180910390a26000547f05602488a31eb67a5634d4ff4acb7664f2e2b28506f678e8544c86128709490e336001604051610a4e929190611daa565b60405180910390a2505050565b60036020528160005260406000206020528060005260406000206000915091509054906101000a900460ff1681565b565b6004602052816000526040600020602052806000526040600020600091509150505481565b60fa81565b60005481565b60016020528060005260406000206000915090508060000154908060010154908060020154908060030160009054906101000a900473ffffffffffffffffffffffffffffffffffffffff16908060040160009054906101000a900473ffffffffffffffffffffffffffffffffffffffff16908060050160009054906101000a900473ffffffffffffffffffffffffffffffffffffffff16908060060154908060070154908060080154908060090160009054906101000a900460ff16908060090160019054906101000a900473ffffffffffffffffffffffffffffffffffffffff1690508b565b81600081118015610bb657506000548111155b610bf5576040517f08c379a0000000000000000000000000000000000000000000000000000000008152600401610bec9061195f565b60405180910390fd5b600060016000858152602001908152602001600020905060016002811115610c2057610c1f611553565b5b8160090160009054906101000a900460ff166002811115610c4457610c43611553565b5b14610c84576040517f08c379a0000000000000000000000000000000000000000000000000000000008152600401610c7b906119cb565b60405180910390fd5b8060020154421115610ccb576040517f08c379a0000000000000000000000000000000000000000000000000000000008152600401610cc290611e1f565b60405180910390fd5b60016002811115610cdf57610cde611553565b5b836002811115610cf257610cf1611553565b5b1480610d215750600280811115610d0c57610d0b611553565b5b836002811115610d1f57610d1e611553565b5b145b610d60576040517f08c379a0000000000000000000000000000000000000000000000000000000008152600401610d5790611e8b565b60405180910390fd5b6003600085815260200190815260200160002060003373ffffffffffffffffffffffffffffffffffffffff1673ffffffffffffffffffffffffffffffffffffffff16815260200190815260200160002060009054906101000a900460ff1615610dfe576040517f08c379a0000000000000000000000000000000000000000000000000000000008152600401610df590611ef7565b60405180910390fd5b8060040160009054906101000a900473ffffffffffffffffffffffffffffffffffffffff1673ffffffffffffffffffffffffffffffffffffffff163373ffffffffffffffffffffffffffffffffffffffff1614158015610eae57508060050160009054906101000a900473ffffffffffffffffffffffffffffffffffffffff1673ffffffffffffffffffffffffffffffffffffffff163373ffffffffffffffffffffffffffffffffffffffff1614155b610eed576040517f08c379a0000000000000000000000000000000000000000000000000000000008152600401610ee490611f63565b60405180910390fd5b66038d7ea4c68000341015610f37576040517f08c379a0000000000000000000000000000000000000000000000000000000008152600401610f2e90611ff5565b60405180910390fd5b60016003600086815260200190815260200160002060003373ffffffffffffffffffffffffffffffffffffffff1673ffffffffffffffffffffffffffffffffffffffff16815260200190815260200160002060006101000a81548160ff021916908315150217905550346004600086815260200190815260200160002060003373ffffffffffffffffffffffffffffffffffffffff1673ffffffffffffffffffffffffffffffffffffffff16815260200190815260200160002081905550348160080160008282546110099190612015565b925050819055506001600281111561102457611023611553565b5b83600281111561103757611036611553565b5b0361105b5780600601600081548092919061105190611d1d565b9190505550611076565b80600701600081548092919061107090611d1d565b91905055505b837fb83d25c6a5d258561330739951487acb4bd09ba5190b5d32c4f261817d9067923385346040516110aa93929190612049565b60405180910390a250505050565b66038d7ea4c6800081565b60026020528160005260406000206020528060005260406000206000915091509054906101000a900460ff1681565b8060008111801561110557506000548111155b611144576040517f08c379a000000000000000000000000000000000000000000000000000000000815260040161113b9061195f565b60405180910390fd5b60006001600084815260200190815260200160002090506000600281111561116f5761116e611553565b5b8160090160009054906101000a900460ff16600281111561119357611192611553565b5b146111d3576040517f08c379a00000000000000000000000000000000000000000000000000000000081526004016111ca906120cc565b60405180910390fd5b600073ffffffffffffffffffffffffffffffffffffffff168160050160009054906101000a900473ffffffffffffffffffffffffffffffffffffffff1673ffffffffffffffffffffffffffffffffffffffff1614611266576040517f08c379a000000000000000000000000000000000000000000000000000000000815260040161125d90612138565b60405180910390fd5b8060040160009054906101000a900473ffffffffffffffffffffffffffffffffffffffff1673ffffffffffffffffffffffffffffffffffffffff163373ffffffffffffffffffffffffffffffffffffffff16036112f8576040517f08c379a00000000000000000000000000000000000000000000000000000000081526004016112ef906121a4565b60405180910390fd5b806001015434101561133f576040517f08c379a000000000000000000000000000000000000000000000000000000000815260040161133690612210565b60405180910390fd5b338160050160006101000a81548173ffffffffffffffffffffffffffffffffffffffff021916908373ffffffffffffffffffffffffffffffffffffffff160217905550348160080160008282546113969190612015565b92505081905550600280600085815260200190815260200160002060003373ffffffffffffffffffffffffffffffffffffffff1673ffffffffffffffffffffffffffffffffffffffff16815260200190815260200160002060006101000a81548160ff021916908360028111156114105761140f611553565b5b021790555060018160090160006101000a81548160ff0219169083600281111561143d5761143c611553565b5b0217905550827f05602488a31eb67a5634d4ff4acb7664f2e2b28506f678e8544c86128709490e336002604051611475929190611daa565b60405180910390a2505050565b600080fd5b6000819050919050565b61149a81611487565b81146114a557600080fd5b50565b6000813590506114b781611491565b92915050565b6000602082840312156114d3576114d2611482565b5b60006114e1848285016114a8565b91505092915050565b6000819050919050565b6114fd816114ea565b82525050565b61150c81611487565b82525050565b600073ffffffffffffffffffffffffffffffffffffffff82169050919050565b600061153d82611512565b9050919050565b61154d81611532565b82525050565b7f4e487b7100000000000000000000000000000000000000000000000000000000600052602160045260246000fd5b6003811061159357611592611553565b5b50565b60008190506115a482611582565b919050565b60006115b482611596565b9050919050565b6115c4816115a9565b82525050565b6000610140820190506115e0600083018d6114f4565b6115ed602083018c611503565b6115fa604083018b611503565b611607606083018a611544565b6116146080830189611544565b61162160a0830188611503565b61162e60c0830187611503565b61163b60e0830186611503565b6116496101008301856115bb565b611657610120830184611544565b9b9a5050505050505050505050565b61166f816114ea565b811461167a57600080fd5b50565b60008135905061168c81611666565b92915050565b600080604083850312156116a9576116a8611482565b5b60006116b78582860161167d565b92505060206116c8858286016114a8565b9150509250929050565b6116db81611532565b81146116e657600080fd5b50565b6000813590506116f8816116d2565b92915050565b6000806040838503121561171557611714611482565b5b6000611723858286016114a8565b9250506020611734858286016116e9565b9150509250929050565b60008115159050919050565b6117538161173e565b82525050565b600060208201905061176e600083018461174a565b92915050565b60006020820190506117896000830184611503565b92915050565b6000610160820190506117a5600083018e6114f4565b6117b2602083018d611503565b6117bf604083018c611503565b6117cc606083018b611544565b6117d9608083018a611544565b6117e660a0830189611544565b6117f360c0830188611503565b61180060e0830187611503565b61180e610100830186611503565b61181c6101208301856115bb565b61182a610140830184611544565b9c9b505050505050505050505050565b6003811061184757600080fd5b50565b6000813590506118598161183a565b92915050565b6000806040838503121561187657611875611482565b5b6000611884858286016114a8565b92505060206118958582860161184a565b9150509250929050565b600381106118b0576118af611553565b5b50565b60008190506118c18261189f565b919050565b60006118d1826118b3565b9050919050565b6118e1816118c6565b82525050565b60006020820190506118fc60008301846118d8565b92915050565b600082825260208201905092915050565b7f4172656e6120646f6573206e6f74206578697374000000000000000000000000600082015250565b6000611949601483611902565b915061195482611913565b602082019050919050565b600060208201905081810360008301526119788161193c565b9050919050565b7f4172656e61206e6f7420696e20766f74696e6720706861736500000000000000600082015250565b60006119b5601983611902565b91506119c08261197f565b602082019050919050565b600060208201905081810360008301526119e4816119a8565b9050919050565b7f566f74696e6720706572696f64206e6f7420656e646564207965740000000000600082015250565b6000611a21601b83611902565b9150611a2c826119eb565b602082019050919050565b60006020820190508181036000830152611a5081611a14565b9050919050565b7f4e487b7100000000000000000000000000000000000000000000000000000000600052601160045260246000fd5b6000611a9182611487565b9150611a9c83611487565b9250828202611aaa81611487565b91508282048414831517611ac157611ac0611a57565b5b5092915050565b7f4e487b7100000000000000000000000000000000000000000000000000000000600052601260045260246000fd5b6000611b0282611487565b9150611b0d83611487565b925082611b1d57611b1c611ac8565b5b828204905092915050565b6000611b3382611487565b9150611b3e83611487565b9250828203905081811115611b5657611b55611a57565b5b92915050565b600081905092915050565b50565b6000611b77600083611b5c565b9150611b8282611b67565b600082019050919050565b6000611b9882611b6a565b9150819050919050565b7f5061796f7574207472616e73666572206661696c656400000000000000000000600082015250565b6000611bd8601683611902565b9150611be382611ba2565b602082019050919050565b60006020820190508181036000830152611c0781611bcb565b9050919050565b6000606082019050611c2360008301866118d8565b611c306020830185611544565b611c3d6040830184611503565b949350505050565b7f4d757374207374616b65204d4f4e20746f20637265617465206172656e610000600082015250565b6000611c7b601e83611902565b9150611c8682611c45565b602082019050919050565b60006020820190508181036000830152611caa81611c6e565b9050919050565b7f456e642074696d65206d75737420626520696e20746865206675747572650000600082015250565b6000611ce7601e83611902565b9150611cf282611cb1565b602082019050919050565b60006020820190508181036000830152611d1681611cda565b9050919050565b6000611d2882611487565b91507fffffffffffffffffffffffffffffffffffffffffffffffffffffffffffffffff8203611d5a57611d59611a57565b5b600182019050919050565b6000608082019050611d7a60008301876114f4565b611d876020830186611503565b611d946040830185611503565b611da16060830184611544565b95945050505050565b6000604082019050611dbf6000830185611544565b611dcc60208301846118d8565b9392505050565b7f566f74696e6720706572696f6420656e64656400000000000000000000000000600082015250565b6000611e09601383611902565b9150611e1482611dd3565b602082019050919050565b60006020820190508181036000830152611e3881611dfc565b9050919050565b7f496e76616c696420736964650000000000000000000000000000000000000000600082015250565b6000611e75600c83611902565b9150611e8082611e3f565b602082019050919050565b60006020820190508181036000830152611ea481611e68565b9050919050565b7f416c726561647920766f74656400000000000000000000000000000000000000600082015250565b6000611ee1600d83611902565b9150611eec82611eab565b602082019050919050565b60006020820190508181036000830152611f1081611ed4565b9050919050565b7f44656261746572732063616e6e6f7420766f7465000000000000000000000000600082015250565b6000611f4d601483611902565b9150611f5882611f17565b602082019050919050565b60006020820190508181036000830152611f7c81611f40565b9050919050565b7f4d757374207374616b65206174206c65617374204d494e5f564f54455f53544160008201527f4b45000000000000000000000000000000000000000000000000000000000000602082015250565b6000611fdf602283611902565b9150611fea82611f83565b604082019050919050565b6000602082019050818103600083015261200e81611fd2565b9050919050565b600061202082611487565b915061202b83611487565b925082820190508082111561204357612042611a57565b5b92915050565b600060608201905061205e6000830186611544565b61206b60208301856118d8565b6120786040830184611503565b949350505050565b7f4172656e61206e6f742061637469766500000000000000000000000000000000600082015250565b60006120b6601083611902565b91506120c182612080565b602082019050919050565b600060208201905081810360008301526120e5816120a9565b9050919050565b7f4172656e6120616c7265616479206861732074776f2064656261746572730000600082015250565b6000612122601e83611902565b915061212d826120ec565b602082019050919050565b6000602082019050818103600083015261215181612115565b9050919050565b7f43616e6e6f742064656261746520796f757273656c6600000000000000000000600082015250565b600061218e601683611902565b915061219982612158565b602082019050919050565b600060208201905081810360008301526121bd81612181565b9050919050565b7f4d757374206d61746368207374616b6520616d6f756e74000000000000000000600082015250565b60006121fa601783611902565b9150612205826121c4565b602082019050919050565b60006020820190508181036000830152612229816121ed565b905091905056fea264697066735822122070c9beb16a35883f3da3abddc2c33ed83a801c2d2a346b6e9149be794ed9ed1c64736f6c63430008140033",
  "linkReferences": {},
  "deployedLinkReferences": {}
}